{
  "_format": "hh-sol-artifact-1",
  "contractName": "pollSystem",
  "sourceName": "contracts/voting.sol",
  "abi": [
    {
      "inputs": [
        {
          "internalType": "string",
          "name": "_pollID",
          "type": "string"
        }
      ],
      "name": "createPoll",
      "outputs": [],
      "stateMutability": "nonpayable",
      "type": "function"
    },
    {
      "inputs": [
        {
          "internalType": "uint256",
          "name": "",
          "type": "uint256"
        }
      ],
      "name": "polls",
      "outputs": [
        {
          "internalType": "string",
          "name": "pollID",
          "type": "string"
        },
        {
          "internalType": "uint256",
          "name": "option1",
          "type": "uint256"
        },
        {
          "internalType": "uint256",
          "name": "option2",
          "type": "uint256"
        },
        {
          "internalType": "uint256",
          "name": "option3",
          "type": "uint256"
        },
        {
          "internalType": "uint256",
          "name": "option4",
          "type": "uint256"
        },
        {
          "internalType": "uint256",
          "name": "option5",
          "type": "uint256"
        },
        {
          "internalType": "uint256",
          "name": "option6",
          "type": "uint256"
        },
        {
          "internalType": "uint256",
          "name": "option7",
          "type": "uint256"
        },
        {
          "internalType": "uint256",
          "name": "option8",
          "type": "uint256"
        },
        {
          "internalType": "uint256",
          "name": "option9",
          "type": "uint256"
        },
        {
          "internalType": "uint256",
          "name": "option10",
          "type": "uint256"
        }
      ],
      "stateMutability": "view",
      "type": "function"
    },
    {
      "inputs": [
        {
          "internalType": "string",
          "name": "_pollID",
          "type": "string"
        }
      ],
      "name": "viewResult",
      "outputs": [
        {
          "components": [
            {
              "internalType": "string",
              "name": "pollID",
              "type": "string"
            },
            {
              "internalType": "uint256",
              "name": "option1",
              "type": "uint256"
            },
            {
              "internalType": "uint256",
              "name": "option2",
              "type": "uint256"
            },
            {
              "internalType": "uint256",
              "name": "option3",
              "type": "uint256"
            },
            {
              "internalType": "uint256",
              "name": "option4",
              "type": "uint256"
            },
            {
              "internalType": "uint256",
              "name": "option5",
              "type": "uint256"
            },
            {
              "internalType": "uint256",
              "name": "option6",
              "type": "uint256"
            },
            {
              "internalType": "uint256",
              "name": "option7",
              "type": "uint256"
            },
            {
              "internalType": "uint256",
              "name": "option8",
              "type": "uint256"
            },
            {
              "internalType": "uint256",
              "name": "option9",
              "type": "uint256"
            },
            {
              "internalType": "uint256",
              "name": "option10",
              "type": "uint256"
            }
          ],
          "internalType": "struct pollSystem.Poll",
          "name": "_foundPoll",
          "type": "tuple"
        }
      ],
      "stateMutability": "view",
      "type": "function"
    },
    {
      "inputs": [
        {
          "internalType": "string",
          "name": "_pollID",
          "type": "string"
        },
        {
          "internalType": "uint256",
          "name": "_chosenOption",
          "type": "uint256"
        }
      ],
      "name": "vote",
      "outputs": [],
      "stateMutability": "nonpayable",
      "type": "function"
    }
  ],
  "bytecode": "0x608060405234801561001057600080fd5b50610c9b806100206000396000f3fe608060405234801561001057600080fd5b506004361061004c5760003560e01c806374a9ced914610051578063a638580314610066578063ac2f007414610079578063b28da993146100ac575b600080fd5b61006461005f366004610869565b6100cc565b005b6100646100743660046108a6565b6101d2565b61008c6100873660046108eb565b6104b6565b6040516100a39b9a99989796959493929190610954565b60405180910390f35b6100bf6100ba366004610869565b6105a8565b6040516100a391906109b7565b6040805161016081018252828152600060208201819052918101829052606081018290526080810182905260a0810182905260c0810182905260e08101829052610100810182905261012081018290526101408101829052815460018101835591805280519091600b027f290decd9548b62a8d60345a988386fc84ba6bc95484008f6362f93160ef3e563019081906101659082610ad6565b506020820151816001015560408201518160020155606082015181600301556080820151816004015560a0820151816005015560c0820151816006015560e082015181600701556101008201518160080155610120820151816009015561014082015181600a0155505050565b60005b6000548110156104b157826040516020016101f09190610b96565b604051602081830303815290604052805190602001206000828154811061021957610219610bb2565b90600052602060002090600b020160000160405160200161023a9190610bc8565b604051602081830303815290604052805190602001200361049f5781600103610298576000818154811061027057610270610bb2565b6000918252602082206001600b909202010180549161028e83610c3e565b919050555061049f565b816002036102d157600081815481106102b3576102b3610bb2565b6000918252602082206002600b909202010180549161028e83610c3e565b8160030361030a57600081815481106102ec576102ec610bb2565b6000918252602082206003600b909202010180549161028e83610c3e565b81600403610343576000818154811061032557610325610bb2565b6000918252602082206004600b909202010180549161028e83610c3e565b8160050361037c576000818154811061035e5761035e610bb2565b6000918252602082206005600b909202010180549161028e83610c3e565b816006036103b5576000818154811061039757610397610bb2565b6000918252602082206006600b909202010180549161028e83610c3e565b816007036103ee57600081815481106103d0576103d0610bb2565b6000918252602082206007600b909202010180549161028e83610c3e565b81600803610427576000818154811061040957610409610bb2565b6000918252602082206008600b909202010180549161028e83610c3e565b81600903610460576000818154811061044257610442610bb2565b6000918252602082206009600b909202010180549161028e83610c3e565b81600a0361049f576000818154811061047b5761047b610bb2565b600091825260208220600a600b909202010180549161049983610c3e565b91905055505b806104a981610c3e565b9150506101d5565b505050565b600081815481106104c657600080fd5b90600052602060002090600b02016000915090508060000180546104e990610a54565b80601f016020809104026020016040519081016040528092919081815260200182805461051590610a54565b80156105625780601f1061053757610100808354040283529160200191610562565b820191906000526020600020905b81548152906001019060200180831161054557829003601f168201915b50505050509080600101549080600201549080600301549080600401549080600501549080600601549080600701549080600801549080600901549080600a015490508b565b61060560405180610160016040528060608152602001600081526020016000815260200160008152602001600081526020016000815260200160008152602001600081526020016000815260200160008152602001600081525090565b60005b6000548110156107c057826040516020016106239190610b96565b604051602081830303815290604052805190602001206000828154811061064c5761064c610bb2565b90600052602060002090600b020160000160405160200161066d9190610bc8565b60405160208183030381529060405280519060200120036107ae576000818154811061069b5761069b610bb2565b90600052602060002090600b0201604051806101600160405290816000820180546106c590610a54565b80601f01602080910402602001604051908101604052809291908181526020018280546106f190610a54565b801561073e5780601f106107135761010080835404028352916020019161073e565b820191906000526020600020905b81548152906001019060200180831161072157829003601f168201915b50505050508152602001600182015481526020016002820154815260200160038201548152602001600482015481526020016005820154815260200160068201548152602001600782015481526020016008820154815260200160098201548152602001600a8201548152505091505b806107b881610c3e565b915050610608565b50919050565b634e487b7160e01b600052604160045260246000fd5b600082601f8301126107ed57600080fd5b813567ffffffffffffffff80821115610808576108086107c6565b604051601f8301601f19908116603f01168101908282118183101715610830576108306107c6565b8160405283815286602085880101111561084957600080fd5b836020870160208301376000602085830101528094505050505092915050565b60006020828403121561087b57600080fd5b813567ffffffffffffffff81111561089257600080fd5b61089e848285016107dc565b949350505050565b600080604083850312156108b957600080fd5b823567ffffffffffffffff8111156108d057600080fd5b6108dc858286016107dc565b95602094909401359450505050565b6000602082840312156108fd57600080fd5b5035919050565b60005b8381101561091f578181015183820152602001610907565b50506000910152565b60008151808452610940816020860160208601610904565b601f01601f19169290920160200192915050565b60006101608083526109688184018f610928565b602084019d909d52505060408101999099526060890197909752608088019590955260a087019390935260c086019190915260e085015261010084015261012083015261014090910152919050565b60208152600082516101608060208501526109d6610180850183610928565b9150602085015160408501526040850151606085015260608501516080850152608085015160a085015260a085015160c085015260c085015160e085015260e0850151610100818187015280870151915050610120818187015280870151915050610140818187015280870151838701525050508091505092915050565b600181811c90821680610a6857607f821691505b6020821081036107c057634e487b7160e01b600052602260045260246000fd5b601f8211156104b157600081815260208120601f850160051c81016020861015610aaf5750805b601f850160051c820191505b81811015610ace57828155600101610abb565b505050505050565b815167ffffffffffffffff811115610af057610af06107c6565b610b0481610afe8454610a54565b84610a88565b602080601f831160018114610b395760008415610b215750858301515b600019600386901b1c1916600185901b178555610ace565b600085815260208120601f198616915b82811015610b6857888601518255948401946001909101908401610b49565b5085821015610b865787850151600019600388901b60f8161c191681555b5050505050600190811b01905550565b60008251610ba8818460208701610904565b9190910192915050565b634e487b7160e01b600052603260045260246000fd5b6000808354610bd681610a54565b60018281168015610bee5760018114610c0357610c32565b60ff1984168752821515830287019450610c32565b8760005260208060002060005b85811015610c295781548a820152908401908201610c10565b50505082870194505b50929695505050505050565b600060018201610c5e57634e487b7160e01b600052601160045260246000fd5b506001019056fea264697066735822122049b4d3c1b6f87057e541f7a92cf85cf90af89c79d19c9d80f85cf6032140746264736f6c63430008110033",
  "linkReferences": {},
  "deployedLinkReferences": {}
}